:100336005B7631305D5B6D355D5B74345DBBB6D32A
:10034600ADCAB9D3C3C8ABC7F2D3A5B5E7D7D3D324
:10035600EFD2F4BDBBBBA5CFB5CDB3A3A1005B76F1
:1003660031305D5B6D355D5B74345D20C4E3BAC3CB
:10037600D6F7C8CB005B7631305D5B6D355D5B745F
:10038600345DD6D0B9FA005B7631305D5B6D355D94
:100396005B74345DB9FEB6FBB1F5005B7631305D5A
:1003A6005B6D355D5B74345DC8ABC7F2D3A5B5E74D
:1003B600D7D3005B7631305D5B6D355D5B74345D44
:1003C600BAC3B5C4A3ACD2D1BEADBFAAB5C6005B95
:1003D6007631305D5B6D355D5B74345DBAC3B5C433
:1003E600A3ACD2D1BEADB9D8B5C600C7EBCBB5B3B9
:0C03F600F6D2BBBCB6BFDAC1EE0D0A00A7
:0609F9000135000134008D
:10085F00E4F522120A77120948120A50E47835F6A5
:10086F007BFF7A0379367F02120402120AE678358B
:10087F00E61460FA24F1601824DF60F2243170204E
:10088F00783576011208B5EF70E47835763180DE71
:10089F00120B4F7837EFF612078BE47835F680CED0
:0608AF00E47835F680C874
:100AE600120B21120B21B2C2120B21B2C2120B2120
:080AF600B2C2120B21B2C222B0
:100A77007580FF7590FF75A0FF75B0FF75C0FF7596
:100A870091007592FFC290C291C292C293C2C3D223
:060A970089D2A8D2AF22B3
:0A0B2E0000007F057E49DEFEDFFCBB
:010B3800229A
:080AC2008F2D8E2C8D2B8C2A48
:100ACA00E4F52EF52FF530F531782A74FF1201522C
:0B0ADA00EC4D4E4F6005120B2E80EE1D
:010AE50022EE
:0C0B21007F117ED07D1BDDFEDEFCDFFAC4
:010B2D0022A5
:0300030002098966
:10098900C0E0C0F0C083C082C0D075D000C000C034
:1009990001C002C003C004C005C006C0071205D7C4
:1009A900D007D006D005D004D003D002D001D000A2
:0B09B900D0D0D082D083D0F0D0E0324C
:10078B008F23E523700D753401C2C27BFF7A037989
:10079B00648054E53464017052F534D2C2E52324ED
:1007AB00FE601A24FE602124EE60281460302416AB
:1007BB007042D2907BFF7A03797BE4802AD2917BC3
:1007CB00FF7A03798DE4801FD2927BFF7A0379A1A4
:1007DB00E48014D2937BFF7A0379B9E48009C29346
:1007EB007BFF7A0379D5E4FF0204027BFF7A03795E
:0507FB00F1120A9D222D
:10023E007869616F2079696E670000000000000028
:10024E0000000000000000000000000000007A68BE
:10025E006F6E672067756F000000000000000000E1
:10026E000000000000000000000000006861206532
:10027E00722062696E0000000000000000000000A5
:10028E00000000000000000000007175616E20711A
:10029E0069752079696E67206469616E207A6900DC
:1002AE0000000000000000006875616E2079696E24
:1002BE0067206E69000000000000000000000000D2
:1002CE000000000000006B61692064656E6700002D
:1002DE000000000000000000000000000000000010
:1002EE00000000006775616E2064656E6700000097
:1002FE0000000000000000000000000000000000F0
:10030E00000077616E20616E0000000000000000AA
:10031E0000000000000000000000000000000000CF
:08032E00000102040516172F5F
:10094800D2B57F057E007D007C00120AC2C2B57F49
:10095800057E007D007C00120AC2D2B57F057E00AC
:100968007D007C00120AC2C2A17F057E007D007C4A
:1009780000120AC2D2A17F057E007D007C00020A17
:01098800C2AC
:10049F007F06120B447D357F17120B397F0A7E00C2
:1004AF007D007C00120AC27F06120B447D037F89F8
:1004BF00120B397F057E007D007C00120AC27D433E
:1004CF007FCF120B397F057E007D007C00120AC2A0
:1004DF007D027FCB120B397D0A7F11120B39E4FDA0
:1004EF007F1E120B397D3F7F19120B397D487F1B01
:1004FF00120B397D1F7F1D120B397F0A7E007D0085
:10050F007C00120AC27D047FCD120B397F057E005D
:10051F007D007C00120AC2E4FD7FB9120B397D4FBA
:0C052F007FCF120B397DFF7F6F020B396C
:1008000012049FE4FD7FBD120B397D487F17120B48
:10081000397F0A7E007D007C00120AC27D807F3C09
:10082000120B397D077F3E120B397DFF7F38120B8B
:10083000397D077F3A120B39E4FD7F40120B397D79
:10084000087F42120B39E4FD7F44120B397D087F8B
:0F08500046120B397F017E007D007C00020AC238
:1005D700E4F521C2A87F2B120B447836A607E4FD69
:1005E7007F29120B39E4FD7F02120B397836E6308A
:1005F700E42D7FB2120B44EF642170237FBF120BEF
:1006070044BF351B7FBA120B448F21E521D39400D9
:10061700400DE521D3940450067835761080047890
:10062700357611E4FD7F2B120B39E4FD7F1C120B8D
:1006370039E4FD7F29120B39E4FD7F02120B39E4FF
:10064700FD7F2B120B39E4FD7FBA120B39E4FD7FD6
:10065700BC120B397D017F08120B39E4FD7F0812AC
:040667000B39D2A8D1
:01066B00226C
:1008B500E4F523F524F523120B557F327E007D00E8
:1008C5007C00120AC212053BEF700280117F0A7E7E
:1008D500007D007C00120AC212066CEF701012092E
:1008E500487F327E007D007C00120AC28005752497
:0E08F5000180090523E523C3940540BBAF2411
:0109030022D1
:100A2700E4F529F5287FB2120B44BF21057529018A
:100A370080147F0A7E007D007C00120AC20528E52B
:080A470028C3940A40DFAF2927
:010A4F002284
:030B550002080093
:10066C00C2A87D557F35120B397D097F1C120B39C1
:10067C007D207FBD120B397D017F08120B397F0164
:10068C007E007D007C00120AC2E4FD7F08120B394B
:10069C007F017E007D007C00120AC2120A27EF70D7
:1006AC0002FF227D0B7F1C120B397DFF7FB2120BD8
:1006BC00397F017E007D007C00120AC27D067F37E7
:1006CC00120B397F017E007D007C00120AC27D0670
:1006DC007F37120B397F057E007D007C00120AC229
:1006EC007D107F29120B39E4FD7FBD120B39D2A886
:0306FC007F012259
:10053B00752601E4F525120A27EF7005F52602054D
:10054B00D4E52590032E93FD7FC1120B39E4FD7F7B
:10055B00C3120B397D047F08120B397F017E007D9E
:10056B00007C00120AC2E4FD7F08120B397F017E6A
:10057B00007D007C00120AC2E4F527E52575F01E0C
:10058B00A4243EF582E43402F583E5822527F58227
:10059B00E43583F583E493FD600E7F05120B39057B
:1005AB0027E527C3941E40D3AD277FB9120B397DA6
:1005BB00FF7FB2120B397D047F37120B390525E50E
:0B05CB0025C394085003020541AF2631
:0105D6002202
:060B4F007FC5120B4422D9
:0B0B3900908100EFF0908000EDF022B2
:0B0B4400908100EFF0908000E0FF22A5
:1009FF000508FD000202FD051CFD000203FC0512A7
:100A0F00FD000204FB0517FD000221DE050DFD00B0
:030A1F00028877D3
:080402008F248B258A2689272F
:10040A00E4F529FFFE120AFE8F2890000074FDF021
:10041A00E4A3F0E5282403A3F0A37401F0E524C4BF
:10042A0054F04401A3F0E4FEFF74002FF582740037
:10043A003EF583E062290FBF00010EEF64054E709E
:10044A00E8E4FEFFC3EF9528EE94005016AB25AA08
:10045A0026A9278F828E8312011562290FBF0001F8
:10046A000E80E1AF287E0078057C007D01AB25AACD
:10047A0026A9271200D674052528F582E43400F54A
:10048A0083E529F07B017A007900E5282406FDE45A
:05049A0033FC0209C45F
:040A220002322580F7
:100A5000759850758920AE32AF33AB07AA06E4F91A
:100A6000F8FF7EE1FDFC1209041201428F8B8F8D8D
:070A7000D28ED2ACD2AF22FE
:0E0B1300C2ACC2998F993099FDC299D2AC2222
:100A9D008B248A258926AB24AA25A9261200FC6061
:100AAD00130526E5267002052514F91200FCFF1228
:050ABD000B1380E22292
:0A09C4008B2A8A2B892C8C2D8D2E96
:1009CE00E4FDFCC3ED952EE52D6480F8EC64809873
:1009DE005018AB2AAA2BA92C8D828C83120115FFDD
:0A09EE00120B130DBD00010C80D99F
:0109F80022DC
:030000000206FFF6
:0C06FF00787FE4F6D8FD758137020746CD
:10000600E709F608DFFA8046E709F208DFFA803EDC
:1000160088828C83E709F0A3DFFA8032E309F608C9
:10002600DFFA8078E309F208DFFA807088828C8331
:10003600E309F0A3DFFA806489828A83E0A3F608E5
:10004600DFFA805889828A83E0A3F208DFFA804CBF
:1000560080D280FA80C680D4806980F28033801096
:1000660080A680EA809A80A880DA80E280CA8033FF
:1000760089828A83ECFAE493A3C8C582C8CCC58377
:10008600CCF0A3C8C582C8CCC583CCDFE9DEE78047
:100096000D89828A83E493A3F608DFF9ECFAA9F0C6
:1000A600EDFB2289828A83ECFAE0A3C8C582C8CC1C
:1000B600C583CCF0A3C8C582C8CCC583CCDFEADE35
:1000C600E880DB89828A83E493A3F208DFF980CC97
:1000D60088F0EF60010E4E60C388F0ED2402B40490
:1000E6000050B9F582EB2402B4040050AF23234537
:0600F60082239000567306
:1000FC00BB010689828A83E0225002E722BBFE0202
:09010C00E32289828A83E4932234
:10011500BB010CE58229F582E5833AF583E022509F
:1001250006E92582F8E622BBFE06E92582F8E222E9
:0D013500E58229F582E5833AF583E4932203
:10090400C2D5E830E70FB2D5E4C39BFBE49AFAE41E
:1009140099F9E498F8EC30E717B2D512093A1201C4
:10092400ACE4C39BFBE49AFAE499F9E498F88003F5
:100934001201AC30D50DE4C39FFFE49EFEE49DFD9F
:04094400E49CFC2211
:0E014200C3E49FFFE49EFEE49DFDE49CFC22CE
:100150007401FF3395E0FEFDFC080808E6CF2FF69A
:1001600018E6CE3EF618E6CD3DF618E6CC3CF62273
:100AFE00E4FFFE1200FC600C0FEF70010E09E970AE
:050B0E00F20A80EF2255
:10070B0002085FE493A3F8E493A34003F68001F29D
:10071B0008DFF48029E493A3F85407240CC8C333EF
:10072B00C4540F4420C8834004F456800146F6DFBE
:10073B00E4800B01020408102040809009F9E47E4C
:10074B00019360BCA3FF543F30E509541FFEE493B3
:10075B00A360010ECF54C025E060A840B8E493A37A
:10076B00FAE493A3F8E493A3C8C582C8CAC583CAA5
:10077B00F0A3C8C582C8CAC583CADFE9DEE780BE5D
:010A260000CF
:1001700075F008758200EF2FFFEE33FECD33CDCC46
:1001800033CCC58233C5829BED9AEC99E5829840C9
:100190000CF582EE9BFEED9AFDEC99FC0FD5F0D6A6
:1001A000E4CEFBE4CDFAE4CCF9A88222B800C1B9D0
:1001B0000059BA002DEC8BF084CFCECDFCE5F0CB0E
:1001C000F97818EF2FFFEE33FEED33FDEC33FCEB47
:1001D00033FB10D703994004EB99FB0FD8E5E4F902
:1001E000FA227818EF2FFFEE33FEED33FDEC33FCEF
:1001F000C933C910D7059BE99A4007EC9BFCE99AE3
:10020000F90FD8E0E4C9FAE4CCFB2275F010EF2F27
:10021000FFEE33FEED33FDCC33CCC833C810D70727
:100220009BEC9AE899400AED9BFDEC9AFCE899F862
:0E0230000FD5F0DAE4CDFBE4CCFAE4C8F922F5
:00000001FF
